:020000040800F2
:1000000000C000208901000895060008A10600082C
:10001000A9060008B1060008B906000800000000A3
:10002000000000000000000000000000C106000801
:10003000CD06000800000000D9060008E50600080B
:10004000E9010008E9010008E9010008E9010008E8
:10005000E9010008E9010008E9010008E9010008D8
:10006000E9010008E9010008E9010008E9010008C8
:10007000E9010008E9010008E9010008E9010008B8
:10008000E9010008E9010008E9010008E9010008A8
:10009000E9010008E9010008E9010008E901000898
:1000A000E9010008E9010008E9010008E901000888
:1000B000E9010008E9010008E9010008E901000878
:1000C000E9010008E9010008E9010008E901000868
:1000D000E9010008C10A0008E9010008E901000877
:1000E000E9010008E9010008E9010008E901000848
:1000F000E9010008E9010008E9010008E901000838
:10010000E9010008E9010008E9010008E901000827
:10011000E9010008E9010008E9010008E901000817
:10012000E9010008E9010008E9010008E901000807
:040130005FF808F17B
:1001340010B5054C237833B9044B13B10448AFF31D
:1001440000800123237010BD18000020000000006F
:10015400681D000808B5064B1BB106480649AFF3F5
:1001640000800648036813B1054B03B1984708BDE6
:1001740000000000681D00081C000020180000207A
:100184000000000080B582B000AF114B7B60114BC2
:100194003B6007E03B681A1D3A607A68111D79607C
:1001A40012681A603A680C4B9A42F3D30B480C4914
:1001B4004FF000028842B8BF40F8042BFFF6FAAFB4
:1001C40000F094FA00F0EAF90837BD4680BD00BF9C
:1001D400801F0008000000201800002018000020E4
:1001E4003800002080B400AFFEE700BF80B500AF48
:1001F4004FF47A7001F03AFD0F4800F0ABFB0F4862
:1002040000F0A8FB0C4800F0A5FB0D4800F0A2FB91
:100214000C4800F09FFB0C4800F09CFB0B4800F0DE
:1002240099FB0B4800F096FB0A4800F093FB0A4840
:1002340000F090FB80BD00BF801D0008B81D0008C1
:10024400F01D0008041E0008301E00085C1E000893
:10025400941E0008C01E0008EC1E000880B584B07F
:1002640000AF78607B6804331B68FB607B681B68A5
:10027400BB60BB6883F30888FB6898471037BD46AA
:1002840080BD00BF80B588B000AF3B1D00221A605E
:10029400043300221A60043300221A60043300225B
:1002A4001A60043300221A6004330023FB6100F057
:1002B40081FB0346FB763A1DFB691344FA7E1A70F0
:1002C400FB690133FB61FB7E0A2B00D100E0EEE702
:1002D4003B79BB76BB7E18462037BD4680BD00BF48
:1002E40080B582B000AF14237B600FE00B4B0B4A48
:1002F400D26882F48072DA60094B094AD26882F0CB
:100304000402DA604FF47A7001F0B0FC7B68013BC0
:100314007B60002BEAD10837BD4680BD0008014050
:100324000014014080B582B000AFFF23FB71394B4C
:100334003B603B685A7800225A709A7800229A707F
:100344003B680022DA703B6800221A71FF23FB71BC
:10035400314800F0FFFA00F0B7FB3B68DB78DBB212
:10036400002B47D03B685B79FB71FB79102B02D0E3
:10037400112B14D034E03B680633184600F054FCCB
:100384003B68991D3B6803F206423B6893F8363498
:10039400DBB2084611461A4600F036FD20E03B6801
:1003A4000633184600F072FD3B68991D3B6803F262
:1003B40006423B6893F83634DBB2084611461A46C7
:1003C40000F022FD3B68FF225A713B685A780022F4
:1003D4005A709A7800229A703B680022DA7016E00C
:1003E4003B685A7800225A709A7800229A703B68C7
:1003F4000022DA70094B094AD26882F48072DA600A
:10040400074B074AD26882F00402DA60A3E7083790
:10041400BD4680BD00A00020141F00080008014054
:100424000014014080B487B000AF786039603B6845
:1004340003F50043FB607B687B613B683B6107E03D
:100444003B691A1D3A617A69111D796112681A6053
:10045400FA683B699A42F3D81C37BD465DF8047BC1
:10046400704700BF80B586B000AFF860B96013462E
:10047400FB80FB68C3F30A03002B0CD1FB6803F178
:10048400006303F58043184600F0B0FE0346042BD6
:1004940001D0002324E0FB6803F1006303F58043EB
:1004A4007B6119E0BB681B683B61FB88032B01D8A7
:1004B4000423FB807869396900F0CAFE0346042BE3
:1004C40001D000230CE07B6904337B61BB680433F7
:1004D400BB60FB88043BFB80FB88002BE2D101233B
:1004E40018461837BD4680BD80B586B000AF786029
:1004F400396000237B61264BFB607B68BB60FB6833
:1005040093F8372493F838341B0213437B8200F0AA
:100514004DFE30E07B8AB3F5007F11D3BA687B6966
:100524001344786919464FF40072FFF79BFF7B8AE6
:10053400A3F500737B827B6903F500737B610EE096
:10054400BA687B691A447B8A786911461A46FFF7B0
:1005540089FF7B8A7A6913447B6100237B820D4B7C
:100564000C4AD26882F48072DA600B4B0A4AD26871
:1005740082F00402DA607B8A002BCBD100F028FEE3
:100584004FF47A7001F072FB1837BD4680BD00BF8E
:1005940000A00020000801400014014080B582B092
:1005A40000AF01F097FB01F09DFB01F03BFB01F074
:1005B400B1FB00F015FAFFF793FEFFF717FEFFF704
:1005C40061FE0346FB71FB79613B062B46D801A211
:1005D40052F823F0F5050008010600080D0600088E
:1005E4001B0600082B060008390600084F06000801
:1005F4001D4800F0AFF9FFF773FE33E01B4800F02D
:10060400A9F9FFF78FFE2DE0194800F0A3F9194866
:10061400FFF724FE26E0184800F09CF91548174916
:10062400FFF762FF1EE0164800F094F91348FFF745
:1006340015FE17E0134800F08DF910480D49FFF737
:10064400F1FE0C48FFF70AFE0CE00F4800F082F9B7
:1006540008484FF4007100F03BF903E00B4800F048
:1006640079F900BFA9E700BF441F0008481F00082C
:100674004C1F000800020020501F00080040000822
:10068400541F0008581F00085C1F0008601F000862
:1006940080B400AFBD465DF8047B704780B400AF02
:1006A400FEE700BF80B400AFFEE700BF80B400AF38
:1006B400FEE700BF80B400AFFEE700BF80B400AF28
:1006C400BD465DF8047B704780B400AFBD465DF85D
:1006D400047B704780B400AFBD465DF8047B70476F
:1006E40080B400AFBD465DF8047B704780B500AFB1
:1006F400154B154A126842F001021A60124A124B55
:100704005968124B0B4053600F4A0F4B1B6823F080
:10071400847323F4803313600B4B0B4A126822F466
:1007240080221A60084B084A526822F4FE025A607A
:10073400054B4FF41F029A6000F00CF8044B4FF085
:1007440000629A6080BD00BF001002400000FFF804
:1007540000ED00E080B500AF00F002F880BD00BFFE
:1007640080B483B000AF00237B6000233B603A4B2E
:10077400394A126842F480321A60374B1B6803F41A
:1007840000333B607B6801337B603B68002B03D103
:100794007B68B3F5A06FF0D12F4B1B6803F40033D3
:1007A400002B02D001233B6001E000233B603B6847
:1007B400012B4BD1294B294A126842F010021A60CE
:1007C400264B264A126822F003021A60234B234A5E
:1007D400126842F002021A601F4B1F4A52685A60A4
:1007E4001D4B1D4A52685A601B4B1B4A526842F407
:1007F40080625A60184B184A526822F47C125A607C
:10080400154B154A526842F4E8125A60124B124AC8
:10081400126842F080721A6000BF0F4B1B6803F02D
:100824000073002BF9D00C4B0B4A526822F00302E0
:100834005A60094B084A526842F002025A6000BFEB
:10084400054B5B6803F00C03082BF9D10C37BD464C
:100854005DF8047B704700BF001002400020024096
:1008640080B483B000AF0346FB71FB79092B03D836
:10087400FB793033DBB202E0FB793733DBB2184665
:100884000C37BD465DF8047B704700BF80B584B06B
:1008940000AF0346FB71FB791B09DBB21846FFF777
:1008A400DFFF03463B73FB7903F00F03DBB218460B
:1008B400FFF7D6FF03467B733B7B184600F064F8D2
:1008C4007B7B184600F060F81037BD4680BD00BF42
:1008D40080B584B000AF786039600023FB600023EA
:1008E400BB600023FB6027E07A68FB6813441B7835
:1008F4001846FFF7CBFFBB680133BB60BB6803F04E
:100904000F03002B06D10A2000F03EF80D2000F062
:100914003BF80EE0BB6803F00703002B06D1202050
:1009240000F032F8202000F02FF802E0202000F040
:100934002BF8FB680133FB60FA683B689A42D3D317
:100944000A2000F021F80D2000F01EF81037BD46F3
:1009540080BD00BF80B584B000AF78600023FB6029
:1009640009E0FB687A6813441B78184600F00CF819
:10097400FB680133FB60FB687A6813441B78002B27
:10098400EFD11037BD4680BD80B582B000AF0346BD
:10099400FB7100BF0648802101F00CF90346002BCF
:1009A400F8D0034BFA7992B29A800837BD4680BDDD
:1009B4000038014080B582B000AF00BF0748202155
:1009C40001F0F8F80346002BF8D0044B9B88FB8019
:1009D400FB88DBB218460837BD4680BD00380140AD
:1009E40080B588B000AF4FF48040012100F0A6FE2E
:1009F4001823FB704FF400733B800323BB703B460A
:100A04002C48194600F0BCFC4823FB704FF480636B
:100A14003B800323BB703B462648194600F0B0FCDC
:100A240025233B7700237B770023BB770123FB77C8
:100A340007F11C03184600F043FB1F4800F012FFA7
:100A44004FF4E133FB6000233B8200237B820023CD
:100A5400BB8200233B830C23FB8207F10C03164863
:100A6400194600F05BFF0023BB804FF48063FB80DA
:100A740000233B814FF480737B813B1D0E48194654
:100A840001F006F80C4840F2266101F0AFF80A487C
:100A940040F22661002201F045F8074840F2255152
:100AA400002201F03FF80448012101F01BF820372F
:100AB400BD4680BD000801400038014080B400AF4D
:100AC400BD465DF8047B704780B584B000AF554BDC
:100AD400BB600023FB73FFF76DFF0346FB71BB682C
:100AE4001B79DBB2002B70D0FB79132B64D801A2E5
:100AF40052F823F0490B0008BD0B0008BD0B000899
:100B0400BD0B0008BD0B0008BD0B0008BD0B0008A1
:100B1400BD0B0008BD0B0008BD0B0008BD0B000891
:100B2400BD0B0008BD0B0008BD0B0008BD0B000881
:100B3400BD0B0008910B0008910B0008910B0008F5
:100B4400AD0B0008BB68B3F801309BB2B3F5806FFE
:100B540011D2BB68B3F801309BB2BA6813440022C7
:100B64009A71BB68B3F801309BB201339AB2BB6887
:100B7400A3F8012021E0BB685A7800225A709A78C1
:100B840000229A70BB680022DA7016E0BB685A78BB
:100B940000225A709A7800229A70BB68FA795A71C6
:100BA400BB680022DA7008E0BB680122DA70BB6817
:100BB40000221A710123FB7300BFFB7B002B00D0C2
:100BC4002CE0BB6800221A7127E0FB79002B03D1CB
:100BD400BB6801221A7120E0BB68B3F801309BB2F4
:100BE400B3F5806F11D2BB68B3F801309BB2BA6819
:100BF4001344FA799A71BB68B3F801309BB201339C
:100C04009AB2BB68A3F8012007E0BB685A780022B7
:100C14005A709A7800229A705DE75CE71037BD46F7
:100C240080BD00BF00A0002080B48BB000AF78600E
:100C3400734BFB61734BBB617B687B61FB6903F2A4
:100C440006433B617B691B781A467B6901331B7839
:100C54001B029BB21344FB8100237B84FB89B3F505
:100C6400017F23D03B6902221A703B6901330022C1
:100C74001A703B69023300221A703B690333002265
:100C84001A703B69043300221A703B690533002251
:100C94001A703B69063300221A703B69073300223D
:100CA4001A70FB69082283F83624A3E000237B62D0
:100CB4000BE07B6A02337A6913441B781A467B8CF7
:100CC40013447B847B6A01337B62FB899A1E7B6AB3
:100CD4009A42EEDC7A8CFB8979690B441B781946BD
:100CE400FB890133786903441B781B020B449A4245
:100CF40030D03B6903221A703B690133FF221A701A
:100D04003B6902337A8CD2B21A703B6903337A8C12
:100D1400120A92B2D2B21A703B690433FA89796921
:100D24000A4412781A703B690533FA8901327969E9
:100D34000A4412781A703B6906337A6912781A7079
:100D44003B6907337A6952781A70FB69082283F881
:100D540036244FE07B6902331B781A467B690333E0
:100D64001B781B029BB21344BB81BB895B02BB6033
:100D740000237B620DE07A6ABB681344BA691344AA
:100D84007A6A043279690A4412781A707B6A0133E8
:100D94007B627B6AB3F5007FEDDBBB8901339BB2D9
:100DA4005B029AB2FB69A3F837243B6900221A70EC
:100DB4003B69013310221A703B6902337A699278D5
:100DC4001A703B6903337A69D2781A703B69043329
:100DD40000221A703B69053300221A703B690633FE
:100DE40000221A703B69073300221A70FB6908223B
:100DF40083F836242C37BD465DF8047B704700BF6A
:100E040000A000200002002080B586B000AFF8608A
:100E1400B9601346FB80FB6868221A70FB680133D3
:100E2400FA88D2B21A70FB680233FA88120A92B2B4
:100E3400D2B21A7000237B610BE07B690333FA683A
:100E440013447A69B9680A4412781A707B690133C9
:100E54007B61FA887B699A42EFDCFB880333FA688A
:100E6400134416221A7000237B6109E07B69FA6837
:100E740013441B781846FFF787FD7B6901337B61B8
:100E84007B690B2BF2DD1837BD4680BD80B48DB075
:100E940000AF78607F4B3B627F4BFB617B68BB613B
:100EA4003B6A03F206437B61BB691B781A46BB6944
:100EB40001331B781B029BB213447B8200237B8586
:100EC4007B8A062B23D07B6902221A707B6901334B
:100ED40000221A707B69023300221A707B69033383
:100EE40000221A707B69043300221A707B6905336F
:100EF40000221A707B69063300221A707B6907335B
:100F040000221A703B6A082283F83624BCE00023CE
:100F1400FB620BE0FB6A0233BA6913441B781A467E
:100F24007B8D13447B85FB6A0133FB627B8A9A1EAB
:100F3400FB6A9A42EEDC7A8D7B8AB9690B441B7892
:100F440019467B8A0133B86903441B781B020B449E
:100F54009A4223D07B6903221A707B6901330022F1
:100F64001A707B69023300221A707B6903330022F2
:100F74001A707B69043300221A707B6905330022DE
:100F84001A707B69063300221A707B6907330022CA
:100F94001A703B6A082283F8362475E0BB69023371
:100FA4001B781A46BB6903331B781B021A44BB69BE
:100FB40004331B781B041A44BB6905331B781B06D6
:100FC4001344FB6000237B620023FB6209E0FB6A9D
:100FD400FA6913441B787A6A13447B62FB6A01330F
:100FE400FB623B6AB3F837349BB21A46FB6A9A42F7
:100FF400EDDC7A6AFB689A4223D07B6904221A707A
:101004007B69013300221A707B69023300221A7053
:101014007B69033300221A707B69043300221A703F
:101024007B69053300221A707B69063300221A702B
:101034007B69073300221A703B6A082283F836243E
:1010440022E07B6900221A707B69013311221A7035
:101054007B69023300221A707B69033300221A7001
:101064007B69043300221A707B69053300221A70ED
:101074007B69063300221A707B69073300221A70D9
:101084003B6A082283F836243437BD465DF8047B76
:10109400704700BF00A000200002002080B483B08D
:1010A40000AF7860054A7B6843F0BF6343F40033C4
:1010B400D3600C37BD465DF8047B704700ED00E05B
:1010C40080B487B000AF786000237B6100233B616C
:1010D4000F23FB607B68DB78002B38D0264BDB6862
:1010E400DB4303F4E0631B0A7B617B69C3F1040304
:1010F4003B617B69FA6822FA03F3FB607B685B78E7
:101104001A463B6902FA03F37B617B689B781A46B3
:10111400FB6813407A6913437B617B691B017B6124
:1011240016497B681B787A69D2B20B4483F8002392
:10113400124B7A6812785209D2B27968097801F0B0
:101144001F01012000FA01F143F822100EE00B4BBD
:101154007A6812785209D2B27968097801F01F01CD
:10116400012000FA01F1203243F822101C37BD4659
:101174005DF8047B704700BF00ED00E000E100E093
:1011840080B483B000AF78603960074A3B6823F0CD
:10119400604323F07F0379680B4393600C37BD46AB
:1011A4005DF8047B704700BF00ED00E080B400AF41
:1011B400044B054A5A60034B044A5A60BD465DF825
:1011C400047B70470020024023016745AB89EFCDC3
:1011D40080B400AF044B044A126942F080021A61E1
:1011E400BD465DF8047B70470020024080B584B0A2
:1011F40000AF78600423FB734FF4302000F09EF8B6
:101204000346FB73FB7B042B1BD1104B0F4A126963
:1012140042F002021A610D4B7A685A610B4B0B4A79
:10122400126942F040021A614FF4302000F086F84F
:101234000346FB73054A054B196941F6FD730B40E0
:101244001361FB7B18461037BD4680BD0020024069
:1012540080B584B000AF786039600423FB73002349
:10126400BB604FF4005000F069F80346FB73FB7B4E
:10127400042B2FD11A4B1A4A126942F001021A6147
:101284007B683A6892B21A804FF4005000F056F826
:101294000346FB73FB7B042B15D17B680233BB60D5
:1012A400BB683A68120C92B21A804FF4005000F0F6
:1012B40045F80346FB730A4A094B196941F6FE7364
:1012C4000B40136106E0064A054B196941F6FE73AB
:1012D4000B401361FB7B18461037BD4680BD00BF31
:1012E4000020024080B483B000AF0423FB71124B92
:1012F400DB6803F00103002B02D00123FB7113E030
:101304000D4BDB6803F00403002B02D00223FB71B6
:101314000AE0094BDB6803F01003002B02D003231F
:10132400FB7101E00423FB71FB7918460C37BD46C1
:101334005DF8047B704700BF0020024080B584B094
:1013440000AF78600423FB73FFF7CCFF0346FB7305
:1013540006E0FFF7C7FF0346FB737B68013B7B6036
:10136400FB7B012B02D17B68002BF2D17B68002B25
:1013740001D10523FB73FB7B18461037BD4680BDA6
:1013840080B489B000AF786039600023FB6100232A
:101394003B610023BB610023FB6000237B610023CE
:1013A400BB603B68DB7803F00F03FB613B68DB78D1
:1013B40003F01003002B04D03B689B78FA691343B5
:1013C400FB613B681B88DBB2002B44D07B681B6845
:1013D4007B610023BB6138E0BB69012202FA03F39D
:1013E400FB603B681B881A46FB6813403B613A6903
:1013F400FB689A4226D1BB699B00FB60FB680F2205
:1014040002FA03F3BB60BB68DB437A6913407B6178
:10141400FB68FA6902FA03F37A6913437B613B6858
:10142400DB78282B05D1BB6901229A407B685A617D
:1014340008E03B68DB78482B04D1BB6901229A4061
:101444007B681A61BB690133BB61BB69072BC3D9D4
:101454007B687A691A603B681B88FF2B46D97B68D6
:101464005B687B610023BB613AE0BB6908330122FE
:1014740002FA03F3FB603B681B881A46FB681340BF
:101484003B613A69FB689A4227D1BB699B00FB60C8
:10149400FB680F2202FA03F3BB60BB68DB437A6983
:1014A40013407B61FB68FA6902FA03F37A69134318
:1014B4007B613B68DB78282B05D1BB6908330122AB
:1014C4009A407B685A613B68DB78482B05D1BB693D
:1014D400083301229A407B681A61BB690133BB61FE
:1014E400BB69072BC1D97B687A695A602437BD462A
:1014F4005DF8047B704700BF80B487B000AF7860AC
:101504000B46FB7000233B610023FB6000237B61DF
:101514000023BB607B68002B03DA2E4BDB697B6105
:1015240002E02C4B5B687B617B6803F470231B0C2B
:10153400BB607B689BB23B617B6803F44013B3F5EB
:10154400401F0AD17B6923F070637B61214B214AE0
:10155400526822F070625A6021E07B6803F48013C1
:10156400002B0ED0BB68032202FA03F3FB60FB6876
:10157400DB437A6913407B617B6943F070637B6171
:101584000DE07B685B0D1B013A6902FA03F3DB4350
:101594007A6913407B617B6943F070637B61FB78FC
:1015A400002B08D07B685B0D1B013A6902FA03F338
:1015B4007A6913437B617B68002B03DA054B7A69F4
:1015C400DA6102E0034B7A695A601C37BD465DF864
:1015D400047B70470000014080B487B000AF78609E
:1015E40000237B6100233B610023FB600023BB607D
:1015F4004D4B5B6803F00C037B617B69042B07D0C4
:10160400082B09D0002B34D17B68484A1A6034E097
:101614007B68464A1A6030E0434B5B6803F47013FE
:101624003B61414B5B6803F48033FB603B699B0C7B
:1016340002333B61FB68002B06D13B693C4A02FB49
:1016440003F27B681A6013E0374B5B6803F40033E2
:10165400002B06D03B69364A02FB03F27B681A6012
:1016640006E03B69314A02FB03F27B681A6004E03E
:1016740003E07B682D4A1A6000BF2B4B5B6803F0C4
:10168400F0037B617B691B097B612A4A7B691344F4
:101694001B78DBB2BB607B681A68BB68DA407B6886
:1016A4005A60214B5B6803F4E0637B617B691B0A2E
:1016B4007B61204A7B6913441B78DBB2BB607B6887
:1016C4005A68BB68DA407B689A60174B5B6803F41E
:1016D40060537B617B69DB0A7B61164A7B69134437
:1016E4001B78DBB2BB607B685A68BB68DA407B68F6
:1016F400DA600D4B5B6803F440437B617B699B0BB1
:101704007B610D4A7B6913441B78DBB2BB607B6849
:10171400DA68BB68B2FBF3F27B681A611C37BD461A
:101724005DF8047B704700BF0010024000127A008D
:1017340000093D00040000201400002080B483B0A0
:1017440000AF78600B46FB70FB78002B06D0094B8A
:10175400084A91697A680A439A6106E0054B054A8A
:1017640091697A68D2430A409A610C37BD465DF8A4
:10177400047B70470010024080B483B000AF7860EF
:101784000B46FB70FB78002B06D0094B084AD16945
:101794007A680A43DA6106E0054B054AD1697A683A
:1017A400D2430A40DA610C37BD465DF8047B7047CA
:1017B4000010024080B483B000AF78600B46FB7029
:1017C400FB78002B06D0094B084AD1687A680A4393
:1017D400DA6006E0054B054AD1687A68D2430A40CC
:1017E400DA600C37BD465DF8047B70470010024098
:1017F40080B483B000AF78600B46FB70FB78002B9D
:1018040006D0094B084A11697A680A431A6106E04E
:10181400054B054A11697A68D2430A401A610C37AC
:10182400BD465DF8047B70470010024080B483B06D
:1018340000AF78607B68042B06D1094B084A126814
:1018440042F004021A6005E0054B054A126822F0D2
:1018540004021A600C37BD465DF8047B704700BF74
:1018640010E000E080B582B000AF78607A68264B63
:101874009A420AD14FF480400121FFF79BFF4FF4B5
:1018840080400021FFF796FF3AE07A681F4B9A42A6
:101894000AD14FF400300121FFF7AAFF4FF40030C2
:1018A4000021FFF7A5FF2BE07A68194B9A420AD171
:1018B4004FF480200121FFF79BFF4FF4802000218B
:1018C400FFF796FF1CE07A68124B9A420AD14FF454
:1018D40000200121FFF78CFF4FF400200021FFF7C7
:1018E40087FF0DE07A680C4B9A4209D14FF48010BF
:1018F4000121FFF77DFF4FF480100021FFF778FFEF
:101904000837BD4680BD00BF003801400044004098
:1019140000480040004C00400050004080B58CB0AE
:1019240000AF786039600023FB620023BB620023B0
:101934007B6200233B620023FB617B68FB617B6865
:101944001B8A9BB2FB62FA6A4CF6FF731340FB627C
:101954003B68DB88FA6A1343FB62FB6A9AB27B68D2
:101964001A827B689B899BB2FB62FA6A4EF6F31378
:101974001340FB623B689A883B681B8913439AB205
:101984003B685B8913439BB2FA6A1343FB62FB6AAD
:101994009AB27B689A817B689B8A9BB2FB62FA6AE3
:1019A4004FF6FF431340FB623B689B89FA6A13437B
:1019B400FB62FB6A9AB27B689A8207F108031846B5
:1019C400FFF70AFEFA69304B9A4202D17B69BB6287
:1019D40001E03B69BB627B689B899BB29BB21BB2F3
:1019E400002B0CDABA6A13469B0013449A001A447B
:1019F4003B681B685B00B2FBF3F37B620BE0BA6AE3
:101A040013469B0013449A001A443B681B689B00CE
:101A1400B2FBF3F37B627A6A1C4BA3FB02135B09F0
:101A24001B01FB62FB6A1B09642202FB03F37A6A53
:101A3400D31A3B627B689B899BB29BB21BB2002B7F
:101A44000DDA3B6ADB0003F13202104BA3FB0213F5
:101A54005B0903F00703FA6A1343FB620CE03B6A79
:101A64001B0103F13202094BA3FB02135B0903F0D0
:101A74000F03FA6A1343FB62FB6A9AB27B681A810A
:101A84003037BD4680BD00BF003801401F85EB5193
:101A940080B485B000AF786039600023FB607B6858
:101AA4001B8A9BB2FB60FA684FF2FF031340FB6092
:101AB4003B681A883B685B8813439AB23B689B88EF
:101AC40013439AB23B68DB8813439BB2FA6813430F
:101AD400FB60FB689AB27B681A821437BD465DF8D6
:101AE400047B704780B483B000AF78600B46FB7012
:101AF400FB78002B08D07B689B899BB243F400538E
:101B04009AB27B689A8107E07B689B899BB223F435
:101B140000539AB27B689A810C37BD465DF8047B0A
:101B2400704700BF80B487B000AF786013460A46A0
:101B34007A807B7000233B610023FB600023BB6041
:101B440000237B617B687B617B88DBB25B09DBB252
:101B54003B617B8803F01F03FB60FB68012202FAF0
:101B640003F3BB603B69012B03D17B690C337B61BD
:101B740009E03B69022B03D17B6910337B6102E0EE
:101B84007B6914337B617B78002B06D07B697A698F
:101B94001168BA680A431A6006E07B697A691168B9
:101BA400BA68D2430A401A601C37BD465DF8047B0C
:101BB400704700BF80B485B000AF78600B467B806F
:101BC4000023FB737B681B889AB27B8813409BB20B
:101BD400002B02D00123FB7301E00023FB73FB7B8A
:101BE40018461437BD465DF8047B704780B485B051
:101BF40000AF78600B467B800023FB810023BB8110
:101C04007B881B0AFB81FB89012202FA03F3BB8157
:101C1400BB89DB439AB27B681A801437BD465DF8F2
:101C2400047B704780B500AF6FF00400FFF7FEFD42
:101C34000A4B1A680A4BA3FB02135B0DDAB2094B79
:101C44001A70084B1B781A465201D21A9200134498
:101C5400DB009AB2044B1A8080BD00BF0000002054
:101C640083DE1B43340000203600002080B485B09E
:101C740000AF0346FB80154BFA881549098801FB20
:101C840002F25A60114B00229A60104B0F4A1268FC
:101C940042F001021A600D4B1B68FB60FB6803F005
:101CA4000103002B04D0FB6803F48033002BF2D033
:101CB400064B064A126822F001021A60034B002206
:101CC4009A601437BD465DF8047B704710E000E06D
:101CD4003600002080B500AF4FF4A060FFF7DEF9B6
:101CE40080BD00BF80B500AF4FF410300121FFF775
:101CF40043FD3D200121FFF721FD05480121FFF7A8
:101D0400FBFB4FF000600021FFF73AFA80BD00BFF3
:101D14000004300080B582B000AF4FF48073BB8004
:101D24001023FB710323BB713B1D0C481946FFF7BD
:101D340027FB0423BB801023FB710323BB713B1DD2
:101D440007481946FFF71CFB044B4FF480721A61D5
:101D5400034B04221A610837BD4680BD00080140C8
:101D640000140140F8B500BFF8BC08BC9E4670479B
:0C1D7400F8B500BFF8BC08BC9E467047E4
:101D80002A2A2A2A2A2A2A2A2A2A2A2A2A2A2A2AB3
:101D90002A2A2A2A2A2A2A2A2A2A2A2A2A2A2A2AA3
:101DA0002A2A2A2A2A2A2A2A2A2A2A2A2A2A2A2A93
:101DB0002A2A2A0A0D0000002A2020202020202084
:101DC00020202020202053544D33324631305820DB
:101DD000426F6F74204D656E752076322E30202054
:101DE000202020202020202020202A0A0D00000072
:101DF0005B615D3A2054657374204C45442E0A0D96
:101E0000000000005B625D3A2055617274205278D8
:101E1000204170702C2052582041646472657373A5
:101E20003A307832303030303230302E0A0D000007
:101E30005B635D3A204A756D7020546F20535241A8
:101E40004D2C20416464726573733A3078323030BF
:101E500030303230302E0A0D000000005B645D3AF5
:101E60002057726974652041707020546F20466C51
:101E70006173682C20536F757263652041646472CE
:101E80006573733A20307832303030303230302E53
:101E90000A0D00005B655D3A2052756E204170703E
:101EA0002C20456E74727920416464726573733AB4
:101EB00020307830383030343030302E0A0D000089
:101EC0005B665D3A20526561642041707020416E0E
:101ED0006420426F6F742046726F6D20307832300C
:101EE0003030303230302E0A0D0000005B675D3A32
:101EF000205072696E74204D656D2C2041646472AF
:101F00006573733A307832303030303230302E0AE8
:101F10000D0000005761697420757365722075703B
:101F20006C6F6164206170702C2072782061646431
:101F3000726573733A20307832303030303230305E
:101F40000A0D0000610A0D00620A0D00630A0D000F
:101F5000640A0D00650A0D00660A0D00670A0D008F
:101F6000756E6B6E6F776E206D656E7520696E6431
:081F700065782E0A0D00000047
:041F78005901000803
:041F7C003501000823
:101F800000A24A040000000001020304010203044D
:081F9000060708090204060817
:0400000508000134BA
:00000001FF
